{
  "contractName": "Board",
  "abi": [
    {
      "inputs": [
        {
          "internalType": "string",
          "name": "name",
          "type": "string"
        },
        {
          "internalType": "string",
          "name": "symbol",
          "type": "string"
        }
      ],
      "stateMutability": "nonpayable",
      "type": "constructor"
    },
    {
      "anonymous": false,
      "inputs": [
        {
          "indexed": true,
          "internalType": "address",
          "name": "owner",
          "type": "address"
        },
        {
          "indexed": true,
          "internalType": "address",
          "name": "approved",
          "type": "address"
        },
        {
          "indexed": true,
          "internalType": "uint256",
          "name": "tokenId",
          "type": "uint256"
        }
      ],
      "name": "Approval",
      "type": "event"
    },
    {
      "anonymous": false,
      "inputs": [
        {
          "indexed": true,
          "internalType": "address",
          "name": "owner",
          "type": "address"
        },
        {
          "indexed": true,
          "internalType": "address",
          "name": "operator",
          "type": "address"
        },
        {
          "indexed": false,
          "internalType": "bool",
          "name": "approved",
          "type": "bool"
        }
      ],
      "name": "ApprovalForAll",
      "type": "event"
    },
    {
      "anonymous": false,
      "inputs": [
        {
          "indexed": true,
          "internalType": "address",
          "name": "_called",
          "type": "address"
        },
        {
          "indexed": false,
          "internalType": "uint256",
          "name": "_idBoard",
          "type": "uint256"
        }
      ],
      "name": "Burn",
      "type": "event"
    },
    {
      "anonymous": false,
      "inputs": [
        {
          "indexed": false,
          "internalType": "address",
          "name": "player",
          "type": "address"
        },
        {
          "indexed": false,
          "internalType": "uint256",
          "name": "idBoard",
          "type": "uint256"
        }
      ],
      "name": "NewBoard",
      "type": "event"
    },
    {
      "anonymous": false,
      "inputs": [
        {
          "indexed": true,
          "internalType": "address",
          "name": "_called",
          "type": "address"
        },
        {
          "indexed": false,
          "internalType": "uint256",
          "name": "_idBoard",
          "type": "uint256"
        }
      ],
      "name": "Restore",
      "type": "event"
    },
    {
      "anonymous": false,
      "inputs": [
        {
          "indexed": true,
          "internalType": "bytes32",
          "name": "role",
          "type": "bytes32"
        },
        {
          "indexed": true,
          "internalType": "bytes32",
          "name": "previousAdminRole",
          "type": "bytes32"
        },
        {
          "indexed": true,
          "internalType": "bytes32",
          "name": "newAdminRole",
          "type": "bytes32"
        }
      ],
      "name": "RoleAdminChanged",
      "type": "event"
    },
    {
      "anonymous": false,
      "inputs": [
        {
          "indexed": true,
          "internalType": "bytes32",
          "name": "role",
          "type": "bytes32"
        },
        {
          "indexed": true,
          "internalType": "address",
          "name": "account",
          "type": "address"
        },
        {
          "indexed": true,
          "internalType": "address",
          "name": "sender",
          "type": "address"
        }
      ],
      "name": "RoleGranted",
      "type": "event"
    },
    {
      "anonymous": false,
      "inputs": [
        {
          "indexed": true,
          "internalType": "bytes32",
          "name": "role",
          "type": "bytes32"
        },
        {
          "indexed": true,
          "internalType": "address",
          "name": "account",
          "type": "address"
        },
        {
          "indexed": true,
          "internalType": "address",
          "name": "sender",
          "type": "address"
        }
      ],
      "name": "RoleRevoked",
      "type": "event"
    },
    {
      "anonymous": false,
      "inputs": [
        {
          "indexed": true,
          "internalType": "address",
          "name": "from",
          "type": "address"
        },
        {
          "indexed": true,
          "internalType": "address",
          "name": "to",
          "type": "address"
        },
        {
          "indexed": true,
          "internalType": "uint256",
          "name": "tokenId",
          "type": "uint256"
        }
      ],
      "name": "Transfer",
      "type": "event"
    },
    {
      "inputs": [],
      "name": "BURNER_ROLE",
      "outputs": [
        {
          "internalType": "bytes32",
          "name": "",
          "type": "bytes32"
        }
      ],
      "stateMutability": "view",
      "type": "function",
      "constant": true
    },
    {
      "inputs": [],
      "name": "DEFAULT_ADMIN_ROLE",
      "outputs": [
        {
          "internalType": "bytes32",
          "name": "",
          "type": "bytes32"
        }
      ],
      "stateMutability": "view",
      "type": "function",
      "constant": true
    },
    {
      "inputs": [],
      "name": "MINTER_ROLE",
      "outputs": [
        {
          "internalType": "bytes32",
          "name": "",
          "type": "bytes32"
        }
      ],
      "stateMutability": "view",
      "type": "function",
      "constant": true
    },
    {
      "inputs": [
        {
          "internalType": "address",
          "name": "to",
          "type": "address"
        },
        {
          "internalType": "uint256",
          "name": "tokenId",
          "type": "uint256"
        }
      ],
      "name": "approve",
      "outputs": [],
      "stateMutability": "nonpayable",
      "type": "function"
    },
    {
      "inputs": [
        {
          "internalType": "address",
          "name": "owner",
          "type": "address"
        }
      ],
      "name": "balanceOf",
      "outputs": [
        {
          "internalType": "uint256",
          "name": "",
          "type": "uint256"
        }
      ],
      "stateMutability": "view",
      "type": "function",
      "constant": true
    },
    {
      "inputs": [],
      "name": "baseURI",
      "outputs": [
        {
          "internalType": "string",
          "name": "",
          "type": "string"
        }
      ],
      "stateMutability": "view",
      "type": "function",
      "constant": true
    },
    {
      "inputs": [
        {
          "internalType": "uint256",
          "name": "tokenId",
          "type": "uint256"
        }
      ],
      "name": "getApproved",
      "outputs": [
        {
          "internalType": "address",
          "name": "",
          "type": "address"
        }
      ],
      "stateMutability": "view",
      "type": "function",
      "constant": true
    },
    {
      "inputs": [
        {
          "internalType": "bytes32",
          "name": "role",
          "type": "bytes32"
        }
      ],
      "name": "getRoleAdmin",
      "outputs": [
        {
          "internalType": "bytes32",
          "name": "",
          "type": "bytes32"
        }
      ],
      "stateMutability": "view",
      "type": "function",
      "constant": true
    },
    {
      "inputs": [
        {
          "internalType": "bytes32",
          "name": "role",
          "type": "bytes32"
        },
        {
          "internalType": "uint256",
          "name": "index",
          "type": "uint256"
        }
      ],
      "name": "getRoleMember",
      "outputs": [
        {
          "internalType": "address",
          "name": "",
          "type": "address"
        }
      ],
      "stateMutability": "view",
      "type": "function",
      "constant": true
    },
    {
      "inputs": [
        {
          "internalType": "bytes32",
          "name": "role",
          "type": "bytes32"
        }
      ],
      "name": "getRoleMemberCount",
      "outputs": [
        {
          "internalType": "uint256",
          "name": "",
          "type": "uint256"
        }
      ],
      "stateMutability": "view",
      "type": "function",
      "constant": true
    },
    {
      "inputs": [
        {
          "internalType": "bytes32",
          "name": "role",
          "type": "bytes32"
        },
        {
          "internalType": "address",
          "name": "account",
          "type": "address"
        }
      ],
      "name": "grantRole",
      "outputs": [],
      "stateMutability": "nonpayable",
      "type": "function"
    },
    {
      "inputs": [
        {
          "internalType": "bytes32",
          "name": "role",
          "type": "bytes32"
        },
        {
          "internalType": "address",
          "name": "account",
          "type": "address"
        }
      ],
      "name": "hasRole",
      "outputs": [
        {
          "internalType": "bool",
          "name": "",
          "type": "bool"
        }
      ],
      "stateMutability": "view",
      "type": "function",
      "constant": true
    },
    {
      "inputs": [
        {
          "internalType": "address",
          "name": "owner",
          "type": "address"
        },
        {
          "internalType": "address",
          "name": "operator",
          "type": "address"
        }
      ],
      "name": "isApprovedForAll",
      "outputs": [
        {
          "internalType": "bool",
          "name": "",
          "type": "bool"
        }
      ],
      "stateMutability": "view",
      "type": "function",
      "constant": true
    },
    {
      "inputs": [],
      "name": "name",
      "outputs": [
        {
          "internalType": "string",
          "name": "",
          "type": "string"
        }
      ],
      "stateMutability": "view",
      "type": "function",
      "constant": true
    },
    {
      "inputs": [
        {
          "internalType": "uint256",
          "name": "tokenId",
          "type": "uint256"
        }
      ],
      "name": "ownerOf",
      "outputs": [
        {
          "internalType": "address",
          "name": "",
          "type": "address"
        }
      ],
      "stateMutability": "view",
      "type": "function",
      "constant": true
    },
    {
      "inputs": [
        {
          "internalType": "bytes32",
          "name": "role",
          "type": "bytes32"
        },
        {
          "internalType": "address",
          "name": "account",
          "type": "address"
        }
      ],
      "name": "renounceRole",
      "outputs": [],
      "stateMutability": "nonpayable",
      "type": "function"
    },
    {
      "inputs": [
        {
          "internalType": "bytes32",
          "name": "role",
          "type": "bytes32"
        },
        {
          "internalType": "address",
          "name": "account",
          "type": "address"
        }
      ],
      "name": "revokeRole",
      "outputs": [],
      "stateMutability": "nonpayable",
      "type": "function"
    },
    {
      "inputs": [
        {
          "internalType": "address",
          "name": "from",
          "type": "address"
        },
        {
          "internalType": "address",
          "name": "to",
          "type": "address"
        },
        {
          "internalType": "uint256",
          "name": "tokenId",
          "type": "uint256"
        }
      ],
      "name": "safeTransferFrom",
      "outputs": [],
      "stateMutability": "nonpayable",
      "type": "function"
    },
    {
      "inputs": [
        {
          "internalType": "address",
          "name": "from",
          "type": "address"
        },
        {
          "internalType": "address",
          "name": "to",
          "type": "address"
        },
        {
          "internalType": "uint256",
          "name": "tokenId",
          "type": "uint256"
        },
        {
          "internalType": "bytes",
          "name": "_data",
          "type": "bytes"
        }
      ],
      "name": "safeTransferFrom",
      "outputs": [],
      "stateMutability": "nonpayable",
      "type": "function"
    },
    {
      "inputs": [
        {
          "internalType": "address",
          "name": "operator",
          "type": "address"
        },
        {
          "internalType": "bool",
          "name": "approved",
          "type": "bool"
        }
      ],
      "name": "setApprovalForAll",
      "outputs": [],
      "stateMutability": "nonpayable",
      "type": "function"
    },
    {
      "inputs": [
        {
          "internalType": "bytes4",
          "name": "interfaceId",
          "type": "bytes4"
        }
      ],
      "name": "supportsInterface",
      "outputs": [
        {
          "internalType": "bool",
          "name": "",
          "type": "bool"
        }
      ],
      "stateMutability": "view",
      "type": "function",
      "constant": true
    },
    {
      "inputs": [],
      "name": "symbol",
      "outputs": [
        {
          "internalType": "string",
          "name": "",
          "type": "string"
        }
      ],
      "stateMutability": "view",
      "type": "function",
      "constant": true
    },
    {
      "inputs": [
        {
          "internalType": "uint256",
          "name": "index",
          "type": "uint256"
        }
      ],
      "name": "tokenByIndex",
      "outputs": [
        {
          "internalType": "uint256",
          "name": "",
          "type": "uint256"
        }
      ],
      "stateMutability": "view",
      "type": "function",
      "constant": true
    },
    {
      "inputs": [
        {
          "internalType": "address",
          "name": "owner",
          "type": "address"
        },
        {
          "internalType": "uint256",
          "name": "index",
          "type": "uint256"
        }
      ],
      "name": "tokenOfOwnerByIndex",
      "outputs": [
        {
          "internalType": "uint256",
          "name": "",
          "type": "uint256"
        }
      ],
      "stateMutability": "view",
      "type": "function",
      "constant": true
    },
    {
      "inputs": [
        {
          "internalType": "uint256",
          "name": "tokenId",
          "type": "uint256"
        }
      ],
      "name": "tokenURI",
      "outputs": [
        {
          "internalType": "string",
          "name": "",
          "type": "string"
        }
      ],
      "stateMutability": "view",
      "type": "function",
      "constant": true
    },
    {
      "inputs": [],
      "name": "totalSupply",
      "outputs": [
        {
          "internalType": "uint256",
          "name": "",
          "type": "uint256"
        }
      ],
      "stateMutability": "view",
      "type": "function",
      "constant": true
    },
    {
      "inputs": [
        {
          "internalType": "address",
          "name": "from",
          "type": "address"
        },
        {
          "internalType": "address",
          "name": "to",
          "type": "address"
        },
        {
          "internalType": "uint256",
          "name": "tokenId",
          "type": "uint256"
        }
      ],
      "name": "transferFrom",
      "outputs": [],
      "stateMutability": "nonpayable",
      "type": "function"
    },
    {
      "inputs": [
        {
          "internalType": "address",
          "name": "user",
          "type": "address"
        }
      ],
      "name": "mintBoard",
      "outputs": [
        {
          "internalType": "uint256",
          "name": "",
          "type": "uint256"
        }
      ],
      "stateMutability": "nonpayable",
      "type": "function"
    },
    {
      "inputs": [
        {
          "internalType": "uint256",
          "name": "idBoard",
          "type": "uint256"
        }
      ],
      "name": "softBurnBoard",
      "outputs": [
        {
          "internalType": "bool",
          "name": "",
          "type": "bool"
        }
      ],
      "stateMutability": "nonpayable",
      "type": "function"
    },
    {
      "inputs": [
        {
          "internalType": "uint256",
          "name": "idBoard",
          "type": "uint256"
        }
      ],
      "name": "restoreBoard",
      "outputs": [
        {
          "internalType": "bool",
          "name": "",
          "type": "bool"
        }
      ],
      "stateMutability": "nonpayable",
      "type": "function"
    },
    {
      "inputs": [
        {
          "internalType": "uint256",
          "name": "idBoard",
          "type": "uint256"
        }
      ],
      "name": "isBurned",
      "outputs": [
        {
          "internalType": "bool",
          "name": "",
          "type": "bool"
        }
      ],
      "stateMutability": "view",
      "type": "function",
      "constant": true
    },
    {
      "inputs": [
        {
          "internalType": "string",
          "name": "newUri",
          "type": "string"
        }
      ],
      "name": "changeURI",
      "outputs": [],
      "stateMutability": "nonpayable",
      "type": "function"
    }
  ],
  "bytecode": "0x60806040523480156200001157600080fd5b50604051620040b1380380620040b1833981810160405260408110156200003757600080fd5b81019080805160405193929190846401000000008211156200005857600080fd5b838201915060208201858111156200006f57600080fd5b82518660018202830111640100000000821117156200008d57600080fd5b8083526020830192505050908051906020019080838360005b83811015620000c3578082015181840152602081019050620000a6565b50505050905090810190601f168015620000f15780820380516001836020036101000a031916815260200191505b50604052602001805160405193929190846401000000008211156200011557600080fd5b838201915060208201858111156200012c57600080fd5b82518660018202830111640100000000821117156200014a57600080fd5b8083526020830192505050908051906020019080838360005b838110156200018057808201518184015260208101905062000163565b50505050905090810190601f168015620001ae5780820380516001836020036101000a031916815260200191505b506040525050508181620001cf6301ffc9a760e01b6200033f60201b60201c565b8160079080519060200190620001e7929190620005fa565b50806008908051906020019062000200929190620005fa565b50620002196380ac58cd60e01b6200033f60201b60201c565b62000231635b5e139f60e01b6200033f60201b60201c565b6200024963780e9d6360e01b6200033f60201b60201c565b5050620002916040518060400160405280602081526020017f68747470733a2f2f6974656d732e6463686573732e6e65742f626f617264732f8152506200044860201b60201c565b620002b56000801b620002a96200046460201b60201c565b6200046c60201b60201c565b620002f67f9f2df0fed2c77648de5860a4cc508cd0818c85b8b8a1ab4ceeef8d981c8956a6620002ea6200046460201b60201c565b6200046c60201b60201c565b620003377f3c11d16cbaffd01df69ce1c404f6340ee057498f5f00246190ea54220576a8486200032b6200046460201b60201c565b6200046c60201b60201c565b5050620006a0565b63ffffffff60e01b817bffffffffffffffffffffffffffffffffffffffffffffffffffffffff19161415620003dc576040517f08c379a000000000000000000000000000000000000000000000000000000000815260040180806020018281038252601c8152602001807f4552433136353a20696e76616c696420696e746572666163652069640000000081525060200191505060405180910390fd5b6001806000837bffffffffffffffffffffffffffffffffffffffffffffffffffffffff19167bffffffffffffffffffffffffffffffffffffffffffffffffffffffff1916815260200190815260200160002060006101000a81548160ff02191690831515021790555050565b80600a908051906020019062000460929190620005fa565b5050565b600033905090565b6200047e82826200048260201b60201c565b5050565b620004b0816000808581526020019081526020016000206000016200052560201b620020ee1790919060201c565b156200052157620004c66200046460201b60201c565b73ffffffffffffffffffffffffffffffffffffffff168173ffffffffffffffffffffffffffffffffffffffff16837f2f8788117e7eff1d82e926ec794901d17c78024a50270940304540a733656f0d60405160405180910390a45b5050565b600062000555836000018373ffffffffffffffffffffffffffffffffffffffff1660001b6200055d60201b60201c565b905092915050565b6000620005718383620005d760201b60201c565b620005cc578260000182908060018154018082558091505060019003906000526020600020016000909190919091505582600001805490508360010160008481526020019081526020016000208190555060019050620005d1565b600090505b92915050565b600080836001016000848152602001908152602001600020541415905092915050565b828054600181600116156101000203166002900490600052602060002090601f016020900481019282601f106200063d57805160ff19168380011785556200066e565b828001600101855582156200066e579182015b828111156200066d57825182559160200191906001019062000650565b5b5090506200067d919062000681565b5090565b5b808211156200069c57600081600090555060010162000682565b5090565b613a0180620006b06000396000f3fe608060405234801561001057600080fd5b50600436106101f05760003560e01c806370a082311161010f578063be28e2c2116100a2578063d547741f11610071578063d547741f14610bf1578063db44fe0714610c3f578063e5e01c1114610c83578063e985e9c514610d3e576101f0565b8063be28e2c214610aa6578063c87b56dd14610aea578063ca15c87314610b91578063d539139314610bd3576101f0565b8063a217fddf116100de578063a217fddf146108db578063a22cb465146108f9578063b8897c7914610949578063b88d4fde146109a1576101f0565b806370a082311461073a5780639010d07c1461079257806391d14854146107f457806395d89b4114610858576101f0565b8063282c51f31161018757806342842e0e1161015657806342842e0e146105af5780634f6ccce71461061d5780636352211e1461065f5780636c0360eb146106b7576101f0565b8063282c51f3146104935780632f2ff15d146104b15780632f745c59146104ff57806336568abe14610561576101f0565b8063095ea7b3116101c3578063095ea7b31461037757806318160ddd146103c557806323b872dd146103e3578063248a9ca314610451576101f0565b806301ffc9a7146101f557806304254a851461025857806306fdde031461029c578063081812fc1461031f575b600080fd5b6102406004803603602081101561020b57600080fd5b8101908080357bffffffffffffffffffffffffffffffffffffffffffffffffffffffff19169060200190929190505050610db8565b60405180821515815260200191505060405180910390f35b6102846004803603602081101561026e57600080fd5b8101908080359060200190929190505050610e20565b60405180821515815260200191505060405180910390f35b6102a4610fad565b6040518080602001828103825283818151815260200191508051906020019080838360005b838110156102e45780820151818401526020810190506102c9565b50505050905090810190601f1680156103115780820380516001836020036101000a031916815260200191505b509250505060405180910390f35b61034b6004803603602081101561033557600080fd5b810190808035906020019092919050505061104f565b604051808273ffffffffffffffffffffffffffffffffffffffff16815260200191505060405180910390f35b6103c36004803603604081101561038d57600080fd5b81019080803573ffffffffffffffffffffffffffffffffffffffff169060200190929190803590602001909291905050506110ea565b005b6103cd61122e565b6040518082815260200191505060405180910390f35b61044f600480360360608110156103f957600080fd5b81019080803573ffffffffffffffffffffffffffffffffffffffff169060200190929190803573ffffffffffffffffffffffffffffffffffffffff1690602001909291908035906020019092919050505061123f565b005b61047d6004803603602081101561046757600080fd5b81019080803590602001909291905050506112b5565b6040518082815260200191505060405180910390f35b61049b6112d4565b6040518082815260200191505060405180910390f35b6104fd600480360360408110156104c757600080fd5b8101908080359060200190929190803573ffffffffffffffffffffffffffffffffffffffff1690602001909291905050506112f8565b005b61054b6004803603604081101561051557600080fd5b81019080803573ffffffffffffffffffffffffffffffffffffffff16906020019092919080359060200190929190505050611381565b6040518082815260200191505060405180910390f35b6105ad6004803603604081101561057757600080fd5b8101908080359060200190929190803573ffffffffffffffffffffffffffffffffffffffff1690602001909291905050506113dc565b005b61061b600480360360608110156105c557600080fd5b81019080803573ffffffffffffffffffffffffffffffffffffffff169060200190929190803573ffffffffffffffffffffffffffffffffffffffff16906020019092919080359060200190929190505050611475565b005b6106496004803603602081101561063357600080fd5b8101908080359060200190929190505050611495565b6040518082815260200191505060405180910390f35b61068b6004803603602081101561067557600080fd5b81019080803590602001909291905050506114b8565b604051808273ffffffffffffffffffffffffffffffffffffffff16815260200191505060405180910390f35b6106bf6114ef565b6040518080602001828103825283818151815260200191508051906020019080838360005b838110156106ff5780820151818401526020810190506106e4565b50505050905090810190601f16801561072c5780820380516001836020036101000a031916815260200191505b509250505060405180910390f35b61077c6004803603602081101561075057600080fd5b81019080803573ffffffffffffffffffffffffffffffffffffffff169060200190929190505050611591565b6040518082815260200191505060405180910390f35b6107c8600480360360408110156107a857600080fd5b810190808035906020019092919080359060200190929190505050611666565b604051808273ffffffffffffffffffffffffffffffffffffffff16815260200191505060405180910390f35b6108406004803603604081101561080a57600080fd5b8101908080359060200190929190803573ffffffffffffffffffffffffffffffffffffffff169060200190929190505050611697565b60405180821515815260200191505060405180910390f35b6108606116c8565b6040518080602001828103825283818151815260200191508051906020019080838360005b838110156108a0578082015181840152602081019050610885565b50505050905090810190601f1680156108cd5780820380516001836020036101000a031916815260200191505b509250505060405180910390f35b6108e361176a565b6040518082815260200191505060405180910390f35b6109476004803603604081101561090f57600080fd5b81019080803573ffffffffffffffffffffffffffffffffffffffff169060200190929190803515159060200190929190505050611771565b005b61098b6004803603602081101561095f57600080fd5b81019080803573ffffffffffffffffffffffffffffffffffffffff169060200190929190505050611927565b6040518082815260200191505060405180910390f35b610aa4600480360360808110156109b757600080fd5b81019080803573ffffffffffffffffffffffffffffffffffffffff169060200190929190803573ffffffffffffffffffffffffffffffffffffffff1690602001909291908035906020019092919080359060200190640100000000811115610a1e57600080fd5b820183602082011115610a3057600080fd5b80359060200191846001830284011164010000000083111715610a5257600080fd5b91908080601f016020809104026020016040519081016040528093929190818152602001838380828437600081840152601f19601f820116905080830192505050505050509192919290505050611a2f565b005b610ad260048036036020811015610abc57600080fd5b8101908080359060200190929190505050611aa7565b60405180821515815260200191505060405180910390f35b610b1660048036036020811015610b0057600080fd5b8101908080359060200190929190505050611c17565b6040518080602001828103825283818151815260200191508051906020019080838360005b83811015610b56578082015181840152602081019050610b3b565b50505050905090810190601f168015610b835780820380516001836020036101000a031916815260200191505b509250505060405180910390f35b610bbd60048036036020811015610ba757600080fd5b8101908080359060200190929190505050611ee8565b6040518082815260200191505060405180910390f35b610bdb611f0e565b6040518082815260200191505060405180910390f35b610c3d60048036036040811015610c0757600080fd5b8101908080359060200190929190803573ffffffffffffffffffffffffffffffffffffffff169060200190929190505050611f32565b005b610c6b60048036036020811015610c5557600080fd5b8101908080359060200190929190505050611fbb565b60405180821515815260200191505060405180910390f35b610d3c60048036036020811015610c9957600080fd5b8101908080359060200190640100000000811115610cb657600080fd5b820183602082011115610cc857600080fd5b80359060200191846001830284011164010000000083111715610cea57600080fd5b91908080601f016020809104026020016040519081016040528093929190818152602001838380828437600081840152601f19601f820116905080830192505050505050509192919290505050611fe5565b005b610da060048036036040811015610d5457600080fd5b81019080803573ffffffffffffffffffffffffffffffffffffffff169060200190929190803573ffffffffffffffffffffffffffffffffffffffff16906020019092919050505061205a565b60405180821515815260200191505060405180910390f35b600060016000837bffffffffffffffffffffffffffffffffffffffffffffffffffffffff19167bffffffffffffffffffffffffffffffffffffffffffffffffffffffff1916815260200190815260200160002060009054906101000a900460ff169050919050565b6000610e537f3c11d16cbaffd01df69ce1c404f6340ee057498f5f00246190ea54220576a848610e4e61211e565b611697565b610ea8576040517f08c379a00000000000000000000000000000000000000000000000000000000081526004018080602001828103825260238152602001806139276023913960400191505060405180910390fd5b610eb182612126565b610f23576040517f08c379a00000000000000000000000000000000000000000000000000000000081526004018080602001828103825260198152602001807f5448495320424f41524420444f4553204e4f542045584953540000000000000081525060200191505060405180910390fd5b6001600c600084815260200190815260200160002060006101000a81548160ff021916908315150217905550610f5761211e565b73ffffffffffffffffffffffffffffffffffffffff167fcc16f5dbb4873280815c1ee09dbd06736cffcc184412cf7a71a0fdb75d397ca5836040518082815260200191505060405180910390a260019050919050565b606060078054600181600116156101000203166002900480601f0160208091040260200160405190810160405280929190818152602001828054600181600116156101000203166002900480156110455780601f1061101a57610100808354040283529160200191611045565b820191906000526020600020905b81548152906001019060200180831161102857829003601f168201915b5050505050905090565b600061105a82612126565b6110af576040517f08c379a000000000000000000000000000000000000000000000000000000000815260040180806020018281038252602c815260200180613882602c913960400191505060405180910390fd5b6005600083815260200190815260200160002060009054906101000a900473ffffffffffffffffffffffffffffffffffffffff169050919050565b60006110f5826114b8565b90508073ffffffffffffffffffffffffffffffffffffffff168373ffffffffffffffffffffffffffffffffffffffff16141561117c576040517f08c379a00000000000000000000000000000000000000000000000000000000081526004018080602001828103825260218152602001806139066021913960400191505060405180910390fd5b8073ffffffffffffffffffffffffffffffffffffffff1661119b61211e565b73ffffffffffffffffffffffffffffffffffffffff1614806111ca57506111c9816111c461211e565b61205a565b5b61121f576040517f08c379a00000000000000000000000000000000000000000000000000000000081526004018080602001828103825260388152602001806137d56038913960400191505060405180910390fd5b6112298383612143565b505050565b600061123a60036121fc565b905090565b61125061124a61211e565b82612211565b6112a5576040517f08c379a000000000000000000000000000000000000000000000000000000000815260040180806020018281038252603181526020018061394a6031913960400191505060405180910390fd5b6112b0838383612305565b505050565b6000806000838152602001908152602001600020600201549050919050565b7f3c11d16cbaffd01df69ce1c404f6340ee057498f5f00246190ea54220576a84881565b61131e6000808481526020019081526020016000206002015461131961211e565b611697565b611373576040517f08c379a000000000000000000000000000000000000000000000000000000000815260040180806020018281038252602f8152602001806136ab602f913960400191505060405180910390fd5b61137d8282612548565b5050565b60006113d482600260008673ffffffffffffffffffffffffffffffffffffffff1673ffffffffffffffffffffffffffffffffffffffff1681526020019081526020016000206125db90919063ffffffff16565b905092915050565b6113e461211e565b73ffffffffffffffffffffffffffffffffffffffff168173ffffffffffffffffffffffffffffffffffffffff1614611467576040517f08c379a000000000000000000000000000000000000000000000000000000000815260040180806020018281038252602f81526020018061399d602f913960400191505060405180910390fd5b61147182826125f5565b5050565b61149083838360405180602001604052806000815250611a2f565b505050565b6000806114ac83600361268890919063ffffffff16565b50905080915050919050565b60006114e8826040518060600160405280602981526020016138376029913960036126b49092919063ffffffff16565b9050919050565b6060600a8054600181600116156101000203166002900480601f0160208091040260200160405190810160405280929190818152602001828054600181600116156101000203166002900480156115875780601f1061155c57610100808354040283529160200191611587565b820191906000526020600020905b81548152906001019060200180831161156a57829003601f168201915b5050505050905090565b60008073ffffffffffffffffffffffffffffffffffffffff168273ffffffffffffffffffffffffffffffffffffffff161415611618576040517f08c379a000000000000000000000000000000000000000000000000000000000815260040180806020018281038252602a81526020018061380d602a913960400191505060405180910390fd5b61165f600260008473ffffffffffffffffffffffffffffffffffffffff1673ffffffffffffffffffffffffffffffffffffffff1681526020019081526020016000206126d3565b9050919050565b600061168f826000808681526020019081526020016000206000016126e890919063ffffffff16565b905092915050565b60006116c08260008086815260200190815260200160002060000161270290919063ffffffff16565b905092915050565b606060088054600181600116156101000203166002900480601f0160208091040260200160405190810160405280929190818152602001828054600181600116156101000203166002900480156117605780601f1061173557610100808354040283529160200191611760565b820191906000526020600020905b81548152906001019060200180831161174357829003601f168201915b5050505050905090565b6000801b81565b61177961211e565b73ffffffffffffffffffffffffffffffffffffffff168273ffffffffffffffffffffffffffffffffffffffff16141561181a576040517f08c379a00000000000000000000000000000000000000000000000000000000081526004018080602001828103825260198152602001807f4552433732313a20617070726f766520746f2063616c6c65720000000000000081525060200191505060405180910390fd5b806006600061182761211e565b73ffffffffffffffffffffffffffffffffffffffff1673ffffffffffffffffffffffffffffffffffffffff16815260200190815260200160002060008473ffffffffffffffffffffffffffffffffffffffff1673ffffffffffffffffffffffffffffffffffffffff16815260200190815260200160002060006101000a81548160ff0219169083151502179055508173ffffffffffffffffffffffffffffffffffffffff166118d461211e565b73ffffffffffffffffffffffffffffffffffffffff167f17307eab39ab6107e8899845ad3d59bd9653f200f220920489ca2b5937696c318360405180821515815260200191505060405180910390a35050565b600061195a7f9f2df0fed2c77648de5860a4cc508cd0818c85b8b8a1ab4ceeef8d981c8956a661195561211e565b611697565b6119af576040517f08c379a00000000000000000000000000000000000000000000000000000000081526004018080602001828103825260238152602001806137826023913960400191505060405180910390fd5b6119b9600b612732565b60006119c5600b612748565b90506119d18382612756565b7fa7febffcd27fd174ddd1bb90166736d1f3b6153436b3b20f1ce1dcdabbeb13648382604051808373ffffffffffffffffffffffffffffffffffffffff1681526020018281526020019250505060405180910390a180915050919050565b611a40611a3a61211e565b83612211565b611a95576040517f08c379a000000000000000000000000000000000000000000000000000000000815260040180806020018281038252603181526020018061394a6031913960400191505060405180910390fd5b611aa18484848461294a565b50505050565b6000611abd6000801b611ab861211e565b611697565b611b12576040517f08c379a000000000000000000000000000000000000000000000000000000000815260040180806020018281038252602281526020018061397b6022913960400191505060405180910390fd5b611b1b82612126565b611b8d576040517f08c379a00000000000000000000000000000000000000000000000000000000081526004018080602001828103825260198152602001807f5448495320424f41524420444f4553204e4f542045584953540000000000000081525060200191505060405180910390fd5b6000600c600084815260200190815260200160002060006101000a81548160ff021916908315150217905550611bc161211e565b73ffffffffffffffffffffffffffffffffffffffff167f467e77758da9d784bae3ae341d63f385979a971050e7aba0b02e11b3c0a694fb836040518082815260200191505060405180910390a260019050919050565b6060611c2282612126565b611c77576040517f08c379a000000000000000000000000000000000000000000000000000000000815260040180806020018281038252602f8152602001806138d7602f913960400191505060405180910390fd5b6060600960008481526020019081526020016000208054600181600116156101000203166002900480601f016020809104026020016040519081016040528092919081815260200182805460018160011615610100020316600290048015611d205780601f10611cf557610100808354040283529160200191611d20565b820191906000526020600020905b815481529060010190602001808311611d0357829003601f168201915b505050505090506060611d316114ef565b9050600081511415611d47578192505050611ee3565b600082511115611e185780826040516020018083805190602001908083835b60208310611d895780518252602082019150602081019050602083039250611d66565b6001836020036101000a03801982511681845116808217855250505050505090500182805190602001908083835b60208310611dda5780518252602082019150602081019050602083039250611db7565b6001836020036101000a0380198251168184511680821785525050505050509050019250505060405160208183030381529060405292505050611ee3565b80611e22856129bc565b6040516020018083805190602001908083835b60208310611e585780518252602082019150602081019050602083039250611e35565b6001836020036101000a03801982511681845116808217855250505050505090500182805190602001908083835b60208310611ea95780518252602082019150602081019050602083039250611e86565b6001836020036101000a03801982511681845116808217855250505050505090500192505050604051602081830303815290604052925050505b919050565b6000611f07600080848152602001908152602001600020600001612b03565b9050919050565b7f9f2df0fed2c77648de5860a4cc508cd0818c85b8b8a1ab4ceeef8d981c8956a681565b611f5860008084815260200190815260200160002060020154611f5361211e565b611697565b611fad576040517f08c379a00000000000000000000000000000000000000000000000000000000081526004018080602001828103825260308152602001806137a56030913960400191505060405180910390fd5b611fb782826125f5565b5050565b6000600c600083815260200190815260200160002060009054906101000a900460ff169050919050565b611ff96000801b611ff461211e565b611697565b61204e576040517f08c379a000000000000000000000000000000000000000000000000000000000815260040180806020018281038252602281526020018061397b6022913960400191505060405180910390fd5b61205781612b18565b50565b6000600660008473ffffffffffffffffffffffffffffffffffffffff1673ffffffffffffffffffffffffffffffffffffffff16815260200190815260200160002060008373ffffffffffffffffffffffffffffffffffffffff1673ffffffffffffffffffffffffffffffffffffffff16815260200190815260200160002060009054906101000a900460ff16905092915050565b6000612116836000018373ffffffffffffffffffffffffffffffffffffffff1660001b612b32565b905092915050565b600033905090565b600061213c826003612ba290919063ffffffff16565b9050919050565b816005600083815260200190815260200160002060006101000a81548173ffffffffffffffffffffffffffffffffffffffff021916908373ffffffffffffffffffffffffffffffffffffffff160217905550808273ffffffffffffffffffffffffffffffffffffffff166121b6836114b8565b73ffffffffffffffffffffffffffffffffffffffff167f8c5be1e5ebec7d5bd14f71427d1e84f3dd0314c0f7b2291e5b200ac8c7c3b92560405160405180910390a45050565b600061220a82600001612bbc565b9050919050565b600061221c82612126565b612271576040517f08c379a000000000000000000000000000000000000000000000000000000000815260040180806020018281038252602c815260200180613756602c913960400191505060405180910390fd5b600061227c836114b8565b90508073ffffffffffffffffffffffffffffffffffffffff168473ffffffffffffffffffffffffffffffffffffffff1614806122eb57508373ffffffffffffffffffffffffffffffffffffffff166122d38461104f565b73ffffffffffffffffffffffffffffffffffffffff16145b806122fc57506122fb818561205a565b5b91505092915050565b8273ffffffffffffffffffffffffffffffffffffffff16612325826114b8565b73ffffffffffffffffffffffffffffffffffffffff1614612391576040517f08c379a00000000000000000000000000000000000000000000000000000000081526004018080602001828103825260298152602001806138ae6029913960400191505060405180910390fd5b600073ffffffffffffffffffffffffffffffffffffffff168273ffffffffffffffffffffffffffffffffffffffff161415612417576040517f08c379a000000000000000000000000000000000000000000000000000000000815260040180806020018281038252602481526020018061370c6024913960400191505060405180910390fd5b612422838383612bcd565b61242d600082612143565b61247e81600260008673ffffffffffffffffffffffffffffffffffffffff1673ffffffffffffffffffffffffffffffffffffffff168152602001908152602001600020612c6c90919063ffffffff16565b506124d081600260008573ffffffffffffffffffffffffffffffffffffffff1673ffffffffffffffffffffffffffffffffffffffff168152602001908152602001600020612c8690919063ffffffff16565b506124e781836003612ca09092919063ffffffff16565b50808273ffffffffffffffffffffffffffffffffffffffff168473ffffffffffffffffffffffffffffffffffffffff167fddf252ad1be2c89b69c2b068fc378daa952ba7f163c4a11628f55a4df523b3ef60405160405180910390a4505050565b61256f816000808581526020019081526020016000206000016120ee90919063ffffffff16565b156125d75761257c61211e565b73ffffffffffffffffffffffffffffffffffffffff168173ffffffffffffffffffffffffffffffffffffffff16837f2f8788117e7eff1d82e926ec794901d17c78024a50270940304540a733656f0d60405160405180910390a45b5050565b60006125ea8360000183612cd5565b60001c905092915050565b61261c81600080858152602001908152602001600020600001612d5890919063ffffffff16565b156126845761262961211e565b73ffffffffffffffffffffffffffffffffffffffff168173ffffffffffffffffffffffffffffffffffffffff16837ff6391f5c32d9c69d2a47ea670b442974b53935d1edc7fd64eb21e047a839171b60405160405180910390a45b5050565b60008060008061269b8660000186612d88565b915091508160001c8160001c9350935050509250929050565b60006126c7846000018460001b84612e21565b60001c90509392505050565b60006126e182600001612f17565b9050919050565b60006126f78360000183612cd5565b60001c905092915050565b600061272a836000018373ffffffffffffffffffffffffffffffffffffffff1660001b612f28565b905092915050565b6001816000016000828254019250508190555050565b600081600001549050919050565b600073ffffffffffffffffffffffffffffffffffffffff168273ffffffffffffffffffffffffffffffffffffffff1614156127f9576040517f08c379a00000000000000000000000000000000000000000000000000000000081526004018080602001828103825260208152602001807f4552433732313a206d696e7420746f20746865207a65726f206164647265737381525060200191505060405180910390fd5b61280281612126565b15612875576040517f08c379a000000000000000000000000000000000000000000000000000000000815260040180806020018281038252601c8152602001807f4552433732313a20746f6b656e20616c7265616479206d696e7465640000000081525060200191505060405180910390fd5b61288160008383612bcd565b6128d281600260008573ffffffffffffffffffffffffffffffffffffffff1673ffffffffffffffffffffffffffffffffffffffff168152602001908152602001600020612c8690919063ffffffff16565b506128e981836003612ca09092919063ffffffff16565b50808273ffffffffffffffffffffffffffffffffffffffff16600073ffffffffffffffffffffffffffffffffffffffff167fddf252ad1be2c89b69c2b068fc378daa952ba7f163c4a11628f55a4df523b3ef60405160405180910390a45050565b612955848484612305565b61296184848484612f4b565b6129b6576040517f08c379a00000000000000000000000000000000000000000000000000000000081526004018080602001828103825260328152602001806136da6032913960400191505060405180910390fd5b50505050565b60606000821415612a04576040518060400160405280600181526020017f30000000000000000000000000000000000000000000000000000000000000008152509050612afe565b600082905060005b60008214612a2e578080600101915050600a8281612a2657fe5b049150612a0c565b60608167ffffffffffffffff81118015612a4757600080fd5b506040519080825280601f01601f191660200182016040528015612a7a5781602001600182028036833780820191505090505b50905060006001830390508593505b60008414612af657600a8481612a9b57fe5b0660300160f81b82828060019003935081518110612ab557fe5b60200101907effffffffffffffffffffffffffffffffffffffffffffffffffffffffffffff1916908160001a905350600a8481612aee57fe5b049350612a89565b819450505050505b919050565b6000612b1182600001612f17565b9050919050565b80600a9080519060200190612b2e9291906135eb565b5050565b6000612b3e8383612f28565b612b97578260000182908060018154018082558091505060019003906000526020600020016000909190919091505582600001805490508360010160008481526020019081526020016000208190555060019050612b9c565b600090505b92915050565b6000612bb4836000018360001b613164565b905092915050565b600081600001805490509050919050565b60001515600c600083815260200190815260200160002060009054906101000a900460ff16151514612c67576040517f08c379a000000000000000000000000000000000000000000000000000000000815260040180806020018281038252600f8152602001807f424f415244204953204255524e4544000000000000000000000000000000000081525060200191505060405180910390fd5b505050565b6000612c7e836000018360001b613187565b905092915050565b6000612c98836000018360001b612b32565b905092915050565b6000612ccc846000018460001b8473ffffffffffffffffffffffffffffffffffffffff1660001b61326f565b90509392505050565b600081836000018054905011612d36576040517f08c379a00000000000000000000000000000000000000000000000000000000081526004018080602001828103825260228152602001806136896022913960400191505060405180910390fd5b826000018281548110612d4557fe5b9060005260206000200154905092915050565b6000612d80836000018373ffffffffffffffffffffffffffffffffffffffff1660001b613187565b905092915050565b60008082846000018054905011612dea576040517f08c379a00000000000000000000000000000000000000000000000000000000081526004018080602001828103825260228152602001806138606022913960400191505060405180910390fd5b6000846000018481548110612dfb57fe5b906000526020600020906002020190508060000154816001015492509250509250929050565b60008084600101600085815260200190815260200160002054905060008114158390612ee8576040517f08c379a00000000000000000000000000000000000000000000000000000000081526004018080602001828103825283818151815260200191508051906020019080838360005b83811015612ead578082015181840152602081019050612e92565b50505050905090810190601f168015612eda5780820380516001836020036101000a031916815260200191505b509250505060405180910390fd5b50846000016001820381548110612efb57fe5b9060005260206000209060020201600101549150509392505050565b600081600001805490509050919050565b600080836001016000848152602001908152602001600020541415905092915050565b6000612f6c8473ffffffffffffffffffffffffffffffffffffffff1661334b565b612f79576001905061315c565b60606130e363150b7a0260e01b612f8e61211e565b888787604051602401808573ffffffffffffffffffffffffffffffffffffffff1681526020018473ffffffffffffffffffffffffffffffffffffffff16815260200183815260200180602001828103825283818151815260200191508051906020019080838360005b83811015613012578082015181840152602081019050612ff7565b50505050905090810190601f16801561303f5780820380516001836020036101000a031916815260200191505b5095505050505050604051602081830303815290604052907bffffffffffffffffffffffffffffffffffffffffffffffffffffffff19166020820180517bffffffffffffffffffffffffffffffffffffffffffffffffffffffff83818316178352505050506040518060600160405280603281526020016136da603291398773ffffffffffffffffffffffffffffffffffffffff1661335e9092919063ffffffff16565b905060008180602001905160208110156130fc57600080fd5b8101908080519060200190929190505050905063150b7a0260e01b7bffffffffffffffffffffffffffffffffffffffffffffffffffffffff1916817bffffffffffffffffffffffffffffffffffffffffffffffffffffffff191614925050505b949350505050565b600080836001016000848152602001908152602001600020541415905092915050565b6000808360010160008481526020019081526020016000205490506000811461326357600060018203905060006001866000018054905003905060008660000182815481106131d257fe5b90600052602060002001549050808760000184815481106131ef57fe5b906000526020600020018190555060018301876001016000838152602001908152602001600020819055508660000180548061322757fe5b60019003818190600052602060002001600090559055866001016000878152602001908152602001600020600090556001945050505050613269565b60009150505b92915050565b600080846001016000858152602001908152602001600020549050600081141561331657846000016040518060400160405280868152602001858152509080600181540180825580915050600190039060005260206000209060020201600090919091909150600082015181600001556020820151816001015550508460000180549050856001016000868152602001908152602001600020819055506001915050613344565b8285600001600183038154811061332957fe5b90600052602060002090600202016001018190555060009150505b9392505050565b600080823b905060008111915050919050565b606061336d8484600085613376565b90509392505050565b6060824710156133d1576040517f08c379a00000000000000000000000000000000000000000000000000000000081526004018080602001828103825260268152602001806137306026913960400191505060405180910390fd5b6133da8561334b565b61344c576040517f08c379a000000000000000000000000000000000000000000000000000000000815260040180806020018281038252601d8152602001807f416464726573733a2063616c6c20746f206e6f6e2d636f6e747261637400000081525060200191505060405180910390fd5b600060608673ffffffffffffffffffffffffffffffffffffffff1685876040518082805190602001908083835b6020831061349c5780518252602082019150602081019050602083039250613479565b6001836020036101000a03801982511681845116808217855250505050505090500191505060006040518083038185875af1925050503d80600081146134fe576040519150601f19603f3d011682016040523d82523d6000602084013e613503565b606091505b509150915061351382828661351f565b92505050949350505050565b6060831561352f578290506135e4565b6000835111156135425782518084602001fd5b816040517f08c379a00000000000000000000000000000000000000000000000000000000081526004018080602001828103825283818151815260200191508051906020019080838360005b838110156135a957808201518184015260208101905061358e565b50505050905090810190601f1680156135d65780820380516001836020036101000a031916815260200191505b509250505060405180910390fd5b9392505050565b828054600181600116156101000203166002900490600052602060002090601f016020900481019282601f1061362c57805160ff191683800117855561365a565b8280016001018555821561365a579182015b8281111561365957825182559160200191906001019061363e565b5b509050613667919061366b565b5090565b5b8082111561368457600081600090555060010161366c565b509056fe456e756d657261626c655365743a20696e646578206f7574206f6620626f756e6473416363657373436f6e74726f6c3a2073656e646572206d75737420626520616e2061646d696e20746f206772616e744552433732313a207472616e7366657220746f206e6f6e20455243373231526563656976657220696d706c656d656e7465724552433732313a207472616e7366657220746f20746865207a65726f2061646472657373416464726573733a20696e73756666696369656e742062616c616e636520666f722063616c6c4552433732313a206f70657261746f7220717565727920666f72206e6f6e6578697374656e7420746f6b656e54484953205553455220444f4553204e4f542048415645204d494e5445525f524f4c45416363657373436f6e74726f6c3a2073656e646572206d75737420626520616e2061646d696e20746f207265766f6b654552433732313a20617070726f76652063616c6c6572206973206e6f74206f776e6572206e6f7220617070726f76656420666f7220616c6c4552433732313a2062616c616e636520717565727920666f7220746865207a65726f20616464726573734552433732313a206f776e657220717565727920666f72206e6f6e6578697374656e7420746f6b656e456e756d657261626c654d61703a20696e646578206f7574206f6620626f756e64734552433732313a20617070726f76656420717565727920666f72206e6f6e6578697374656e7420746f6b656e4552433732313a207472616e73666572206f6620746f6b656e2074686174206973206e6f74206f776e4552433732314d657461646174613a2055524920717565727920666f72206e6f6e6578697374656e7420746f6b656e4552433732313a20617070726f76616c20746f2063757272656e74206f776e657254484953205553455220444f4553204e4f542048415645204255524e45525f524f4c454552433732313a207472616e736665722063616c6c6572206973206e6f74206f776e6572206e6f7220617070726f76656454484953205553455220444f4553204e4f5420484156452041444d494e5f524f4c45416363657373436f6e74726f6c3a2063616e206f6e6c792072656e6f756e636520726f6c657320666f722073656c66a2646970667358221220d1918ffd3ab18207ae8c3c65518209d9c687df1b8fe0c0602c016895d83df01264736f6c63430007000033",
  "immutableReferences": {},
  "source": "// SPDX-License-Identifier: MIT\npragma solidity ^0.7.0;\n\nimport \"@openzeppelin/contracts/token/ERC721/ERC721.sol\";\nimport \"@openzeppelin/contracts/access/AccessControl.sol\";\nimport \"@openzeppelin/contracts/utils/Context.sol\";\nimport \"@openzeppelin/contracts/utils/Counters.sol\";\n\ncontract Board is Context, AccessControl, ERC721 {\n  using Counters for Counters.Counter;\n  \n  Counters.Counter private _tokenID;\n  \n  mapping(uint256 => bool) private _burnedBoard;\n\n  //Events\n\n  event NewBoard(address player, uint256 idBoard);\n\n  event Burn(address indexed _called, uint256 _idBoard);\n\n  event Restore(address indexed _called, uint256 _idBoard);\n\n\n  //Access Control\n  \n  bytes32 public constant MINTER_ROLE = keccak256(\"MINTER_ROLE\");\n\n  bytes32 public constant BURNER_ROLE = keccak256(\"BURNER_ROLE\");\n\n  \n  constructor(\n    string memory name,\n    string memory symbol\n  ) ERC721(name, symbol) public {\n    _setBaseURI(\"https://items.dchess.net/boards/\");\n\n    //ROLE DEFINITION\n    _setupRole(DEFAULT_ADMIN_ROLE, _msgSender());\n\n    _setupRole(MINTER_ROLE, _msgSender());\n\n    _setupRole(BURNER_ROLE, _msgSender());\n\n  }\n\n  function mintBoard(address user) public returns (uint256) {\n    require(\n      hasRole(MINTER_ROLE,_msgSender()),\n      \"THIS USER DOES NOT HAVE MINTER_ROLE\");\n\n    _tokenID.increment();\n\n    uint256 newBoard = _tokenID.current();\n\n    _mint(user,newBoard);\n\n    emit NewBoard(user, newBoard);\n\n    return newBoard;\n  }\n\n  function softBurnBoard(uint idBoard) public returns (bool) {\n    require(\n      hasRole(BURNER_ROLE,_msgSender()),\n      \"THIS USER DOES NOT HAVE BURNER_ROLE\");\n\n    require(\n      _exists(idBoard),\n      \"THIS BOARD DOES NOT EXIST\");\n\n    _burnedBoard[idBoard] = true;\n\n    emit Burn(_msgSender(), idBoard);\n\n    return true;\n  }\n\n  function restoreBoard(uint idBoard) public returns (bool) {\n    require(\n      hasRole(DEFAULT_ADMIN_ROLE,_msgSender()),\n      \"THIS USER DOES NOT HAVE ADMIN_ROLE\");\n\n    require(\n      _exists(idBoard),\n      \"THIS BOARD DOES NOT EXIST\");\n\n    _burnedBoard[idBoard] = false;\n\n    emit Restore(_msgSender(), idBoard);\n\n    return true;\n  }\n\n  function isBurned(uint256 idBoard) public view virtual returns(bool) {\n    return _burnedBoard[idBoard];\n  } \n\n  function _beforeTokenTransfer(address from, address to, uint256 idBoard) internal virtual override(ERC721) { \n    require(_burnedBoard[idBoard] == false, \"BOARD IS BURNED\");\n  }\n\n  function changeURI(string memory newUri) public virtual {\n    require(\n      hasRole(DEFAULT_ADMIN_ROLE,_msgSender()),\n      \"THIS USER DOES NOT HAVE ADMIN_ROLE\");\n    \n    _setBaseURI(newUri);\n  }\n  \n}\n",
  "sourcePath": "C:\\Users\\ignac\\OneDrive\\Escritorio\\DChess\\DChessBlockchain\\Board\\contracts\\Board.sol",
  "compiler": {
    "name": "solc",
    "version": "0.7.0+commit.9e61f92b.Emscripten.clang"
  },
  "schemaVersion": "3.4.3",
  "updatedAt": "2021-10-04T15:10:59.780Z",
  "networkType": "ethereum",
  "devdoc": {
    "kind": "dev",
    "methods": {
      "approve(address,uint256)": {
        "details": "See {IERC721-approve}."
      },
      "balanceOf(address)": {
        "details": "See {IERC721-balanceOf}."
      },
      "baseURI()": {
        "details": "Returns the base URI set via {_setBaseURI}. This will be automatically added as a prefix in {tokenURI} to each token's URI, or to the token ID if no specific URI is set for that token ID."
      },
      "getApproved(uint256)": {
        "details": "See {IERC721-getApproved}."
      },
      "getRoleAdmin(bytes32)": {
        "details": "Returns the admin role that controls `role`. See {grantRole} and {revokeRole}. To change a role's admin, use {_setRoleAdmin}."
      },
      "getRoleMember(bytes32,uint256)": {
        "details": "Returns one of the accounts that have `role`. `index` must be a value between 0 and {getRoleMemberCount}, non-inclusive. Role bearers are not sorted in any particular way, and their ordering may change at any point. WARNING: When using {getRoleMember} and {getRoleMemberCount}, make sure you perform all queries on the same block. See the following https://forum.openzeppelin.com/t/iterating-over-elements-on-enumerableset-in-openzeppelin-contracts/2296[forum post] for more information."
      },
      "getRoleMemberCount(bytes32)": {
        "details": "Returns the number of accounts that have `role`. Can be used together with {getRoleMember} to enumerate all bearers of a role."
      },
      "grantRole(bytes32,address)": {
        "details": "Grants `role` to `account`. If `account` had not been already granted `role`, emits a {RoleGranted} event. Requirements: - the caller must have ``role``'s admin role."
      },
      "hasRole(bytes32,address)": {
        "details": "Returns `true` if `account` has been granted `role`."
      },
      "isApprovedForAll(address,address)": {
        "details": "See {IERC721-isApprovedForAll}."
      },
      "name()": {
        "details": "See {IERC721Metadata-name}."
      },
      "ownerOf(uint256)": {
        "details": "See {IERC721-ownerOf}."
      },
      "renounceRole(bytes32,address)": {
        "details": "Revokes `role` from the calling account. Roles are often managed via {grantRole} and {revokeRole}: this function's purpose is to provide a mechanism for accounts to lose their privileges if they are compromised (such as when a trusted device is misplaced). If the calling account had been granted `role`, emits a {RoleRevoked} event. Requirements: - the caller must be `account`."
      },
      "revokeRole(bytes32,address)": {
        "details": "Revokes `role` from `account`. If `account` had been granted `role`, emits a {RoleRevoked} event. Requirements: - the caller must have ``role``'s admin role."
      },
      "safeTransferFrom(address,address,uint256)": {
        "details": "See {IERC721-safeTransferFrom}."
      },
      "safeTransferFrom(address,address,uint256,bytes)": {
        "details": "See {IERC721-safeTransferFrom}."
      },
      "setApprovalForAll(address,bool)": {
        "details": "See {IERC721-setApprovalForAll}."
      },
      "supportsInterface(bytes4)": {
        "details": "See {IERC165-supportsInterface}. Time complexity O(1), guaranteed to always use less than 30 000 gas."
      },
      "symbol()": {
        "details": "See {IERC721Metadata-symbol}."
      },
      "tokenByIndex(uint256)": {
        "details": "See {IERC721Enumerable-tokenByIndex}."
      },
      "tokenOfOwnerByIndex(address,uint256)": {
        "details": "See {IERC721Enumerable-tokenOfOwnerByIndex}."
      },
      "tokenURI(uint256)": {
        "details": "See {IERC721Metadata-tokenURI}."
      },
      "totalSupply()": {
        "details": "See {IERC721Enumerable-totalSupply}."
      },
      "transferFrom(address,address,uint256)": {
        "details": "See {IERC721-transferFrom}."
      }
    },
    "version": 1
  },
  "userdoc": {
    "kind": "user",
    "methods": {},
    "version": 1
  }
}